{
  "address": "0xf7047ed56f0cC75512FfB21e568dB5A490eDE6d3",
  "abi": [
    {
      "inputs": [],
      "stateMutability": "nonpayable",
      "type": "constructor"
    },
    {
      "anonymous": false,
      "inputs": [
        {
          "indexed": true,
          "internalType": "address",
          "name": "user",
          "type": "address"
        }
      ],
      "name": "AuthorizedUserAdded",
      "type": "event"
    },
    {
      "anonymous": false,
      "inputs": [
        {
          "indexed": true,
          "internalType": "address",
          "name": "user",
          "type": "address"
        }
      ],
      "name": "AuthorizedUserRemoved",
      "type": "event"
    },
    {
      "inputs": [
        {
          "internalType": "address",
          "name": "_user",
          "type": "address"
        }
      ],
      "name": "addAuthorizedUser",
      "outputs": [],
      "stateMutability": "payable",
      "type": "function"
    },
    {
      "inputs": [
        {
          "internalType": "address",
          "name": "",
          "type": "address"
        }
      ],
      "name": "authorizedUsers",
      "outputs": [
        {
          "internalType": "bool",
          "name": "",
          "type": "bool"
        }
      ],
      "stateMutability": "view",
      "type": "function"
    },
    {
      "inputs": [
        {
          "internalType": "address",
          "name": "_user",
          "type": "address"
        }
      ],
      "name": "isAuthorizedUser",
      "outputs": [
        {
          "internalType": "bool",
          "name": "",
          "type": "bool"
        }
      ],
      "stateMutability": "view",
      "type": "function"
    },
    {
      "inputs": [],
      "name": "minFee",
      "outputs": [
        {
          "internalType": "uint256",
          "name": "",
          "type": "uint256"
        }
      ],
      "stateMutability": "view",
      "type": "function"
    },
    {
      "inputs": [],
      "name": "owner",
      "outputs": [
        {
          "internalType": "address",
          "name": "",
          "type": "address"
        }
      ],
      "stateMutability": "view",
      "type": "function"
    },
    {
      "inputs": [
        {
          "internalType": "address",
          "name": "_user",
          "type": "address"
        }
      ],
      "name": "removeAuthorizedUser",
      "outputs": [],
      "stateMutability": "nonpayable",
      "type": "function"
    },
    {
      "inputs": [],
      "name": "withdrawFees",
      "outputs": [],
      "stateMutability": "nonpayable",
      "type": "function"
    }
  ],
  "transactionHash": "0xa4a5d2ea5c288049d749d1d260f617e1e29f8abf0fb609d3d54537d438617632",
  "args": [],
  "numDeployments": 1,
  "solcInputHash": "9032092856d416a8d3e7218a6b84151d",
  "bytecode": "0x608060405234801561001057600080fd5b50600080546001600160a01b03191633179055610483806100326000396000f3fe6080604052600436106100705760003560e01c8063476343ee1161004e578063476343ee146100f857806389fabc801461010d5780638da5cb5b1461012d578063ec17e13a1461016557600080fd5b8063177d2a74146100755780631828983a1461008a57806324ec7590146100cf575b600080fd5b61008861008336600461041d565b61019e565b005b34801561009657600080fd5b506100ba6100a536600461041d565b60016020526000908152604090205460ff1681565b60405190151581526020015b60405180910390f35b3480156100db57600080fd5b506100ea662386f26fc1000081565b6040519081526020016100c6565b34801561010457600080fd5b506100886102a5565b34801561011957600080fd5b5061008861012836600461041d565b61032c565b34801561013957600080fd5b5060005461014d906001600160a01b031681565b6040516001600160a01b0390911681526020016100c6565b34801561017157600080fd5b506100ba61018036600461041d565b6001600160a01b031660009081526001602052604090205460ff1690565b662386f26fc100003410156101ed5760405162461bcd60e51b815260206004820152601060248201526f496e73756666696369656e742066656560801b60448201526064015b60405180910390fd5b6001600160a01b03811660009081526001602052604090205460ff16156102565760405162461bcd60e51b815260206004820152601760248201527f5573657220616c726561647920617574686f72697a656400000000000000000060448201526064016101e4565b6001600160a01b0381166000818152600160208190526040808320805460ff1916909217909155517f7e07c71a6d7714652e08d641a843dff01e823c8eeed08945be844015fe3353939190a250565b6000546001600160a01b031633146102ef5760405162461bcd60e51b815260206004820152600d60248201526c2737ba103a34329037bbb732b960991b60448201526064016101e4565b600080546040516001600160a01b03909116914780156108fc02929091818181858888f19350505050158015610329573d6000803e3d6000fd5b50565b6000546001600160a01b031633146103765760405162461bcd60e51b815260206004820152600d60248201526c2737ba103a34329037bbb732b960991b60448201526064016101e4565b6001600160a01b03811660009081526001602052604090205460ff166103d45760405162461bcd60e51b8152602060048201526013602482015272155cd95c881b9bdd08185d5d1a1bdc9a5e9959606a1b60448201526064016101e4565b6001600160a01b038116600081815260016020526040808220805460ff19169055517f0bece08ee0f89f13f32c18b4d128aa51d03a53f8543317a83a924d5785f781e09190a250565b60006020828403121561042f57600080fd5b81356001600160a01b038116811461044657600080fd5b939250505056fea2646970667358221220008798f6de1bae510a39f85b340b150117a641f6445ee1315a92a3a732dda84a64736f6c63430008130033",
  "devdoc": {
    "kind": "dev",
    "methods": {},
    "version": 1
  },
  "userdoc": {
    "kind": "user",
    "methods": {},
    "version": 1
  },
  "storageLayout": {
    "storage": [
      {
        "astId": 2410,
        "contract": "contracts/approval_authority/ApprovalAuthority.sol:ApprovalAuthority",
        "label": "owner",
        "offset": 0,
        "slot": "0",
        "type": "t_address"
      },
      {
        "astId": 2417,
        "contract": "contracts/approval_authority/ApprovalAuthority.sol:ApprovalAuthority",
        "label": "authorizedUsers",
        "offset": 0,
        "slot": "1",
        "type": "t_mapping(t_address,t_bool)"
      }
    ],
    "types": {
      "t_address": {
        "encoding": "inplace",
        "label": "address",
        "numberOfBytes": "20"
      },
      "t_bool": {
        "encoding": "inplace",
        "label": "bool",
        "numberOfBytes": "1"
      },
      "t_mapping(t_address,t_bool)": {
        "encoding": "mapping",
        "key": "t_address",
        "label": "mapping(address => bool)",
        "numberOfBytes": "32",
        "value": "t_bool"
      }
    }
  }
}