{
  "address": "0xacAdeD0792E374950301aeb83679c2559FA62049",
  "abi": [
    {
      "inputs": [],
      "stateMutability": "nonpayable",
      "type": "constructor"
    },
    {
      "anonymous": false,
      "inputs": [
        {
          "indexed": true,
          "internalType": "address",
          "name": "insuredAddress",
          "type": "address"
        },
        {
          "indexed": false,
          "internalType": "uint256",
          "name": "insuranceAmount",
          "type": "uint256"
        }
      ],
      "name": "InsuranceClaimed",
      "type": "event"
    },
    {
      "anonymous": false,
      "inputs": [
        {
          "indexed": true,
          "internalType": "address",
          "name": "insuredAddress",
          "type": "address"
        },
        {
          "indexed": false,
          "internalType": "uint256",
          "name": "insuranceAmount",
          "type": "uint256"
        },
        {
          "indexed": false,
          "internalType": "uint256",
          "name": "premiumPaid",
          "type": "uint256"
        },
        {
          "indexed": false,
          "internalType": "uint256",
          "name": "validityPeriod",
          "type": "uint256"
        }
      ],
      "name": "InsuranceUpdated",
      "type": "event"
    },
    {
      "anonymous": false,
      "inputs": [
        {
          "indexed": true,
          "internalType": "address",
          "name": "insuredAddress",
          "type": "address"
        },
        {
          "indexed": false,
          "internalType": "uint256",
          "name": "insuranceAmount",
          "type": "uint256"
        },
        {
          "indexed": false,
          "internalType": "uint256",
          "name": "premiumPaid",
          "type": "uint256"
        },
        {
          "indexed": false,
          "internalType": "uint256",
          "name": "validityPeriod",
          "type": "uint256"
        }
      ],
      "name": "NewInsurance",
      "type": "event"
    },
    {
      "inputs": [
        {
          "internalType": "address",
          "name": "_insuredAddress",
          "type": "address"
        },
        {
          "internalType": "uint256",
          "name": "_insuranceAmount",
          "type": "uint256"
        },
        {
          "internalType": "uint256",
          "name": "_validityPeriod",
          "type": "uint256"
        }
      ],
      "name": "addNewInsurance",
      "outputs": [],
      "stateMutability": "payable",
      "type": "function"
    },
    {
      "inputs": [
        {
          "internalType": "address",
          "name": "_insuredAddress",
          "type": "address"
        }
      ],
      "name": "checkValidity",
      "outputs": [
        {
          "internalType": "bool",
          "name": "",
          "type": "bool"
        }
      ],
      "stateMutability": "view",
      "type": "function"
    },
    {
      "inputs": [
        {
          "internalType": "address",
          "name": "_insuredAddress",
          "type": "address"
        }
      ],
      "name": "claimInsurance",
      "outputs": [],
      "stateMutability": "nonpayable",
      "type": "function"
    },
    {
      "inputs": [
        {
          "internalType": "address",
          "name": "_insuredAddress",
          "type": "address"
        }
      ],
      "name": "getInsurance",
      "outputs": [
        {
          "components": [
            {
              "internalType": "address",
              "name": "insuredAddress",
              "type": "address"
            },
            {
              "internalType": "uint256",
              "name": "insuranceAmount",
              "type": "uint256"
            },
            {
              "internalType": "uint256",
              "name": "premiumPaid",
              "type": "uint256"
            },
            {
              "internalType": "uint256",
              "name": "validityPeriod",
              "type": "uint256"
            },
            {
              "internalType": "uint256",
              "name": "startTime",
              "type": "uint256"
            },
            {
              "internalType": "bool",
              "name": "isValid",
              "type": "bool"
            },
            {
              "internalType": "bool",
              "name": "isClaimed",
              "type": "bool"
            }
          ],
          "internalType": "struct InsuranceManager.Insured",
          "name": "",
          "type": "tuple"
        }
      ],
      "stateMutability": "view",
      "type": "function"
    },
    {
      "inputs": [
        {
          "internalType": "address",
          "name": "",
          "type": "address"
        }
      ],
      "name": "insurances",
      "outputs": [
        {
          "internalType": "address",
          "name": "insuredAddress",
          "type": "address"
        },
        {
          "internalType": "uint256",
          "name": "insuranceAmount",
          "type": "uint256"
        },
        {
          "internalType": "uint256",
          "name": "premiumPaid",
          "type": "uint256"
        },
        {
          "internalType": "uint256",
          "name": "validityPeriod",
          "type": "uint256"
        },
        {
          "internalType": "uint256",
          "name": "startTime",
          "type": "uint256"
        },
        {
          "internalType": "bool",
          "name": "isValid",
          "type": "bool"
        },
        {
          "internalType": "bool",
          "name": "isClaimed",
          "type": "bool"
        }
      ],
      "stateMutability": "view",
      "type": "function"
    },
    {
      "inputs": [
        {
          "internalType": "address",
          "name": "_insuredAddress",
          "type": "address"
        }
      ],
      "name": "invalidateInsurance",
      "outputs": [],
      "stateMutability": "nonpayable",
      "type": "function"
    },
    {
      "inputs": [],
      "name": "owner",
      "outputs": [
        {
          "internalType": "address",
          "name": "",
          "type": "address"
        }
      ],
      "stateMutability": "view",
      "type": "function"
    },
    {
      "inputs": [
        {
          "internalType": "address",
          "name": "_insuredAddress",
          "type": "address"
        },
        {
          "internalType": "uint256",
          "name": "_additionalValidityPeriod",
          "type": "uint256"
        }
      ],
      "name": "renewInsurance",
      "outputs": [],
      "stateMutability": "nonpayable",
      "type": "function"
    },
    {
      "inputs": [
        {
          "internalType": "address",
          "name": "_insuredAddress",
          "type": "address"
        },
        {
          "internalType": "uint256",
          "name": "_insuranceAmount",
          "type": "uint256"
        },
        {
          "internalType": "uint256",
          "name": "_validityPeriod",
          "type": "uint256"
        }
      ],
      "name": "updateInsurance",
      "outputs": [],
      "stateMutability": "nonpayable",
      "type": "function"
    },
    {
      "inputs": [],
      "name": "withdraw",
      "outputs": [],
      "stateMutability": "nonpayable",
      "type": "function"
    }
  ],
  "transactionHash": "0x60100834737a2627fc61f7206fb55cfd63820fdf22f971f461c7bfc86a9d1a20",
  "args": [],
  "numDeployments": 3,
  "solcInputHash": "64c9fbae3d7b9242d0f51d6e2c89fc7f",
  "bytecode": "0x608060405234801561001057600080fd5b50600180546001600160a01b03191633179055610b8d806100326000396000f3fe6080604052600436106100915760003560e01c80635497a321116100595780635497a3211461022d5780635fd7a3e11461024d5780638da5cb5b14610260578063b901e86b14610298578063f6fd2b42146102b857600080fd5b80631239c271146100965780631677c500146100b8578063171ee9f31461013f57806327bae60a1461016f5780633ccfd60b14610218575b600080fd5b3480156100a257600080fd5b506100b66100b1366004610a8b565b6102d8565b005b3480156100c457600080fd5b506100d86100d3366004610a8b565b6104d9565b604051610136919081516001600160a01b031681526020808301519082015260408083015190820152606080830151908201526080808301519082015260a08281015115159082015260c09182015115159181019190915260e00190565b60405180910390f35b34801561014b57600080fd5b5061015f61015a366004610a8b565b6105d5565b6040519015158152602001610136565b34801561017b57600080fd5b506101d561018a366004610a8b565b6000602081905290815260409020805460018201546002830154600384015460048501546005909501546001600160a01b039094169492939192909160ff8082169161010090041687565b604080516001600160a01b03909816885260208801969096529486019390935260608501919091526080840152151560a0830152151560c082015260e001610136565b34801561022457600080fd5b506100b66106ab565b34801561023957600080fd5b506100b6610248366004610aa6565b61073a565b6100b661025b366004610ad0565b610809565b34801561026c57600080fd5b50600154610280906001600160a01b031681565b6040516001600160a01b039091168152602001610136565b3480156102a457600080fd5b506100b66102b3366004610ad0565b610978565b3480156102c457600080fd5b506100b66102d3366004610a8b565b610a14565b6001600160a01b03818116600090815260208190526040902054166103185760405162461bcd60e51b815260040161030f90610b03565b60405180910390fd5b6001600160a01b03811660009081526020819052604090206005015460ff1661037c5760405162461bcd60e51b8152602060048201526016602482015275125b9cdd5c985b98d9481a5cc81b9bdd081d985b1a5960521b604482015260640161030f565b6001600160a01b038116600090815260208190526040902060050154610100900460ff16156103ed5760405162461bcd60e51b815260206004820152601960248201527f496e737572616e636520616c726561647920636c61696d656400000000000000604482015260640161030f565b6001600160a01b0381166000908152602081905260409020600381015460049091015461041a9190610b30565b4211156104775760405162461bcd60e51b815260206004820152602560248201527f496e737572616e63652076616c696469747920706572696f64206861732065786044820152641c1a5c995960da1b606482015260840161030f565b6001600160a01b0381166000818152602081815260409182902060058101805461ffff19166101001790556001015491519182527fd1ecb6c48be11bc10ebf5b0c43978edf1b7fcbc3f5adb6a5ea66952d6a73f72a910160405180910390a250565b6105266040518060e0016040528060006001600160a01b03168152602001600081526020016000815260200160008152602001600081526020016000151581526020016000151581525090565b6001600160a01b038281166000908152602081905260409020541661055d5760405162461bcd60e51b815260040161030f90610b03565b506001600160a01b0390811660009081526020818152604091829020825160e0810184528154909416845260018101549184019190915260028101549183019190915260038101546060830152600481015460808301526005015460ff808216151560a084015261010090910416151560c082015290565b6001600160a01b0381811660009081526020819052604081205490911661060e5760405162461bcd60e51b815260040161030f90610b03565b6001600160a01b0380831660009081526020818152604091829020825160e0810184528154909416845260018101549184019190915260028101549183019190915260038101546060830152600481015460808301526005015460ff80821615801560a08501819052610100909304909116151560c08401526106a45750806060015181608001516106a09190610b30565b4211155b9392505050565b6001546001600160a01b031633146106fe5760405162461bcd60e51b81526020600482015260166024820152752737ba103a34329031b7b73a3930b1ba1037bbb732b960511b604482015260640161030f565b6001546040516001600160a01b03909116904780156108fc02916000818181858888f19350505050158015610737573d6000803e3d6000fd5b50565b6001600160a01b03828116600090815260208190526040902054166107715760405162461bcd60e51b815260040161030f90610b03565b6001600160a01b03821660009081526020819052604090206005015460ff166107d55760405162461bcd60e51b8152602060048201526016602482015275125b9cdd5c985b98d9481a5cc81b9bdd081d985b1a5960521b604482015260640161030f565b6001600160a01b03821660009081526020819052604081206003018054839290610800908490610b30565b90915550505050565b6001600160a01b0383811660009081526020819052604090205416156108835760405162461bcd60e51b815260206004820152602960248201527f496e737572616e636520616c72656164792065786973747320666f722074686960448201526873206164647265737360b81b606482015260840161030f565b6040805160e0810182526001600160a01b0385811680835260208084018781523485870181815260608088018a81524260808a01908152600160a08b01818152600060c08d018181528b8252818b52908e90209c518d546001600160a01b0319169c169b909b178c559651908b0155925160028a015551600389015590516004880155915160059096018054955161ffff1990961696151561ff0019169690961761010095151595909502949094179094558451878152908101929092529281018490527f4100d825ec025b9fddcf76c88644efa49df98ccebe7c8c24219922147b46325f91015b60405180910390a2505050565b6001600160a01b03838116600090815260208190526040902054166109af5760405162461bcd60e51b815260040161030f90610b03565b6001600160a01b038316600081815260208181526040918290206001810186905560038101859055600201548251868152918201529081018390527f0ada1a6b806fa243fef4d8b77588540e2cff899f776cf9cc83424ed18cbeaff79060600161096b565b6001600160a01b0381811660009081526020819052604090205416610a4b5760405162461bcd60e51b815260040161030f90610b03565b6001600160a01b03166000908152602081905260409020600501805460ff19169055565b80356001600160a01b0381168114610a8657600080fd5b919050565b600060208284031215610a9d57600080fd5b6106a482610a6f565b60008060408385031215610ab957600080fd5b610ac283610a6f565b946020939093013593505050565b600080600060608486031215610ae557600080fd5b610aee84610a6f565b95602085013595506040909401359392505050565b602080825260139082015272125b9cdd5c985b98d9481b9bdd08199bdd5b99606a1b604082015260600190565b80820180821115610b5157634e487b7160e01b600052601160045260246000fd5b9291505056fea26469706673582212202f7c9ee46eaecfa7d91627bbaafbbafc282ecd30561f1120428732783695093364736f6c63430008130033",
  "devdoc": {
    "kind": "dev",
    "methods": {},
    "version": 1
  },
  "userdoc": {
    "kind": "user",
    "methods": {},
    "version": 1
  },
  "storageLayout": {
    "storage": [
      {
        "astId": 21,
        "contract": "contracts/insurance_manager/InsuranceManager.sol:InsuranceManager",
        "label": "insurances",
        "offset": 0,
        "slot": "0",
        "type": "t_mapping(t_address,t_struct(Insured)16_storage)"
      },
      {
        "astId": 23,
        "contract": "contracts/insurance_manager/InsuranceManager.sol:InsuranceManager",
        "label": "owner",
        "offset": 0,
        "slot": "1",
        "type": "t_address"
      }
    ],
    "types": {
      "t_address": {
        "encoding": "inplace",
        "label": "address",
        "numberOfBytes": "20"
      },
      "t_bool": {
        "encoding": "inplace",
        "label": "bool",
        "numberOfBytes": "1"
      },
      "t_mapping(t_address,t_struct(Insured)16_storage)": {
        "encoding": "mapping",
        "key": "t_address",
        "label": "mapping(address => struct InsuranceManager.Insured)",
        "numberOfBytes": "32",
        "value": "t_struct(Insured)16_storage"
      },
      "t_struct(Insured)16_storage": {
        "encoding": "inplace",
        "label": "struct InsuranceManager.Insured",
        "members": [
          {
            "astId": 3,
            "contract": "contracts/insurance_manager/InsuranceManager.sol:InsuranceManager",
            "label": "insuredAddress",
            "offset": 0,
            "slot": "0",
            "type": "t_address"
          },
          {
            "astId": 5,
            "contract": "contracts/insurance_manager/InsuranceManager.sol:InsuranceManager",
            "label": "insuranceAmount",
            "offset": 0,
            "slot": "1",
            "type": "t_uint256"
          },
          {
            "astId": 7,
            "contract": "contracts/insurance_manager/InsuranceManager.sol:InsuranceManager",
            "label": "premiumPaid",
            "offset": 0,
            "slot": "2",
            "type": "t_uint256"
          },
          {
            "astId": 9,
            "contract": "contracts/insurance_manager/InsuranceManager.sol:InsuranceManager",
            "label": "validityPeriod",
            "offset": 0,
            "slot": "3",
            "type": "t_uint256"
          },
          {
            "astId": 11,
            "contract": "contracts/insurance_manager/InsuranceManager.sol:InsuranceManager",
            "label": "startTime",
            "offset": 0,
            "slot": "4",
            "type": "t_uint256"
          },
          {
            "astId": 13,
            "contract": "contracts/insurance_manager/InsuranceManager.sol:InsuranceManager",
            "label": "isValid",
            "offset": 0,
            "slot": "5",
            "type": "t_bool"
          },
          {
            "astId": 15,
            "contract": "contracts/insurance_manager/InsuranceManager.sol:InsuranceManager",
            "label": "isClaimed",
            "offset": 1,
            "slot": "5",
            "type": "t_bool"
          }
        ],
        "numberOfBytes": "192"
      },
      "t_uint256": {
        "encoding": "inplace",
        "label": "uint256",
        "numberOfBytes": "32"
      }
    }
  }
}