{
  "address": "0x61D178043F1998e1C2FBf378d438100b6f23095E",
  "abi": [
    {
      "inputs": [],
      "stateMutability": "nonpayable",
      "type": "constructor"
    },
    {
      "inputs": [],
      "name": "EmptyArgs",
      "type": "error"
    },
    {
      "inputs": [],
      "name": "EmptySource",
      "type": "error"
    },
    {
      "inputs": [],
      "name": "NoInlineSecrets",
      "type": "error"
    },
    {
      "inputs": [],
      "name": "OnlyRouterCanFulfill",
      "type": "error"
    },
    {
      "inputs": [
        {
          "internalType": "bytes32",
          "name": "requestId",
          "type": "bytes32"
        }
      ],
      "name": "UnexpectedRequestID",
      "type": "error"
    },
    {
      "anonymous": false,
      "inputs": [
        {
          "indexed": true,
          "internalType": "address",
          "name": "from",
          "type": "address"
        },
        {
          "indexed": true,
          "internalType": "address",
          "name": "to",
          "type": "address"
        }
      ],
      "name": "OwnershipTransferRequested",
      "type": "event"
    },
    {
      "anonymous": false,
      "inputs": [
        {
          "indexed": true,
          "internalType": "address",
          "name": "from",
          "type": "address"
        },
        {
          "indexed": true,
          "internalType": "address",
          "name": "to",
          "type": "address"
        }
      ],
      "name": "OwnershipTransferred",
      "type": "event"
    },
    {
      "anonymous": false,
      "inputs": [
        {
          "indexed": true,
          "internalType": "bytes32",
          "name": "id",
          "type": "bytes32"
        }
      ],
      "name": "RequestFulfilled",
      "type": "event"
    },
    {
      "anonymous": false,
      "inputs": [
        {
          "indexed": true,
          "internalType": "bytes32",
          "name": "id",
          "type": "bytes32"
        }
      ],
      "name": "RequestSent",
      "type": "event"
    },
    {
      "anonymous": false,
      "inputs": [
        {
          "indexed": true,
          "internalType": "bytes32",
          "name": "requestId",
          "type": "bytes32"
        },
        {
          "indexed": false,
          "internalType": "uint256",
          "name": "riskFactor",
          "type": "uint256"
        },
        {
          "indexed": false,
          "internalType": "bytes",
          "name": "response",
          "type": "bytes"
        },
        {
          "indexed": false,
          "internalType": "bytes",
          "name": "err",
          "type": "bytes"
        }
      ],
      "name": "Response",
      "type": "event"
    },
    {
      "inputs": [],
      "name": "acceptOwnership",
      "outputs": [],
      "stateMutability": "nonpayable",
      "type": "function"
    },
    {
      "inputs": [
        {
          "internalType": "bytes32",
          "name": "requestId",
          "type": "bytes32"
        },
        {
          "internalType": "bytes",
          "name": "response",
          "type": "bytes"
        },
        {
          "internalType": "bytes",
          "name": "err",
          "type": "bytes"
        }
      ],
      "name": "handleOracleFulfillment",
      "outputs": [],
      "stateMutability": "nonpayable",
      "type": "function"
    },
    {
      "inputs": [],
      "name": "owner",
      "outputs": [
        {
          "internalType": "address",
          "name": "",
          "type": "address"
        }
      ],
      "stateMutability": "view",
      "type": "function"
    },
    {
      "inputs": [],
      "name": "riskFactor",
      "outputs": [
        {
          "internalType": "uint256",
          "name": "",
          "type": "uint256"
        }
      ],
      "stateMutability": "view",
      "type": "function"
    },
    {
      "inputs": [],
      "name": "s_lastError",
      "outputs": [
        {
          "internalType": "bytes",
          "name": "",
          "type": "bytes"
        }
      ],
      "stateMutability": "view",
      "type": "function"
    },
    {
      "inputs": [],
      "name": "s_lastRequestId",
      "outputs": [
        {
          "internalType": "bytes32",
          "name": "",
          "type": "bytes32"
        }
      ],
      "stateMutability": "view",
      "type": "function"
    },
    {
      "inputs": [],
      "name": "s_lastResponse",
      "outputs": [
        {
          "internalType": "bytes",
          "name": "",
          "type": "bytes"
        }
      ],
      "stateMutability": "view",
      "type": "function"
    },
    {
      "inputs": [
        {
          "internalType": "uint64",
          "name": "subscriptionId",
          "type": "uint64"
        },
        {
          "internalType": "string[]",
          "name": "args",
          "type": "string[]"
        }
      ],
      "name": "sendRequest",
      "outputs": [
        {
          "internalType": "bytes32",
          "name": "requestId",
          "type": "bytes32"
        }
      ],
      "stateMutability": "nonpayable",
      "type": "function"
    },
    {
      "inputs": [
        {
          "internalType": "address",
          "name": "to",
          "type": "address"
        }
      ],
      "name": "transferOwnership",
      "outputs": [],
      "stateMutability": "nonpayable",
      "type": "function"
    }
  ],
  "transactionHash": "0x8f0c098b23d35c49ec7f4509ee901f20abaacd8d405d3f46d2b2104d2a487d52",
  "args": [],
  "numDeployments": 5,
  "solcInputHash": "de54e8dad981b623a4a1d5e2ff8d28a3",
  "bytecode": "0x600580546001600160a01b03191673c17094e3a1348e5c7544d4ff8a36c28f2c6aae28179055610a0060405261092260a0818152906200196b60c0396006906200004a908262000281565b506007805463ffffffff1916620493e01790557f66756e2d6f7074696d69736d2d7365706f6c69612d31000000000000000000006008553480156200008e57600080fd5b506005546001600160a01b03166080523380600081620000f55760405162461bcd60e51b815260206004820152601860248201527f43616e6e6f7420736574206f776e657220746f207a65726f000000000000000060448201526064015b60405180910390fd5b600080546001600160a01b0319166001600160a01b03848116919091179091558116156200012857620001288162000131565b5050506200034d565b336001600160a01b038216036200018b5760405162461bcd60e51b815260206004820152601760248201527f43616e6e6f74207472616e7366657220746f2073656c660000000000000000006044820152606401620000ec565b600180546001600160a01b0319166001600160a01b0383811691821790925560008054604051929316917fed8889f560326eb138920d842192f0eb3dd22b4f139c87a2c57538e05bae12789190a350565b634e487b7160e01b600052604160045260246000fd5b600181811c908216806200020757607f821691505b6020821081036200022857634e487b7160e01b600052602260045260246000fd5b50919050565b601f8211156200027c57600081815260208120601f850160051c81016020861015620002575750805b601f850160051c820191505b81811015620002785782815560010162000263565b5050505b505050565b81516001600160401b038111156200029d576200029d620001dc565b620002b581620002ae8454620001f2565b846200022e565b602080601f831160018114620002ed5760008415620002d45750858301515b600019600386901b1c1916600185901b17855562000278565b600085815260208120601f198616915b828110156200031e57888601518255948401946001909101908401620002fd565b50858210156200033d5787850151600019600388901b60f8161c191681555b5050505050600190811b01905550565b6080516115fb6200037060003960008181610143015261085201526115fb6000f3fe608060405234801561001057600080fd5b50600436106100935760003560e01c80634b0795a8116100665780634b0795a8146100f157806379ba5097146100f95780638da5cb5b14610101578063b1e217491461011c578063f2fde38b1461012557600080fd5b806304c46c13146100985780630ca76175146100b45780633944ea3a146100c957806348a7d26d146100de575b600080fd5b6100a160095481565b6040519081526020015b60405180910390f35b6100c76100c2366004610fad565b610138565b005b6100d16101bc565b6040516100ab919061105f565b6100a16100ec366004611072565b61024a565b6100d161037a565b6100c7610387565b6000546040516001600160a01b0390911681526020016100ab565b6100a160025481565b6100c7610133366004611100565b610436565b336001600160a01b037f000000000000000000000000000000000000000000000000000000000000000016146101815760405163c6829f8360e01b815260040160405180910390fd5b61018c83838361044a565b60405183907f85e1543bf2f84fe80c6badbce3648c8539ad1df4d2b3d822938ca0538be727e690600090a2505050565b600380546101c990611129565b80601f01602080910402602001604051908101604052809291908181526020018280546101f590611129565b80156102425780601f1061021757610100808354040283529160200191610242565b820191906000526020600020905b81548152906001019060200180831161022557829003601f168201915b505050505081565b60006102546104e5565b6102956040805160e0810190915280600081526020016000815260200160008152602001606081526020016060815260200160608152602001606081525090565b610332600680546102a590611129565b80601f01602080910402602001604051908101604052809291908181526020018280546102d190611129565b801561031e5780601f106102f35761010080835404028352916020019161031e565b820191906000526020600020905b81548152906001019060200180831161030157829003601f168201915b50505050508261053a90919063ffffffff16565b821561034c5761034c6103458486611163565b829061054b565b61036c61035882610575565b600754600854889163ffffffff169061084d565b600281905595945050505050565b600480546101c990611129565b6001546001600160a01b031633146103df5760405162461bcd60e51b815260206004820152601660248201527526bab9ba10313290383937b837b9b2b21037bbb732b960511b60448201526064015b60405180910390fd5b60008054336001600160a01b0319808316821784556001805490911690556040516001600160a01b0390921692909183917f8be0079c531659141344cd1fd0a4f28419497f9722a3daafe3b4186f6b6457e091a350565b61043e6104e5565b6104478161091f565b50565b826002541461046f5760405163d068bf5b60e01b8152600481018490526024016103d6565b600361047b8382611248565b50818060200190518101906104909190611307565b600955600461049f8282611248565b50827ffc03b1503acd478faf9c08107596f6d5c04b4591fea84f8d6f21bdf613b5370e600954600360046040516104d89392919061139d565b60405180910390a2505050565b6000546001600160a01b031633146105385760405162461bcd60e51b815260206004820152601660248201527527b7363c9031b0b63630b1363290313c9037bbb732b960511b60448201526064016103d6565b565b61054782600080846109c8565b5050565b805160000361056d5760405163fe936cb760e01b815260040160405180910390fd5b60a090910152565b60606000610584610100610a46565b90506105bd6040518060400160405280600c81526020016b31b7b232a637b1b0ba34b7b760a11b81525082610a6790919063ffffffff16565b82516105db9060028111156105d4576105d46113d2565b8290610a85565b6040805180820190915260088152676c616e677561676560c01b6020820152610605908290610a67565b604083015161061c9080156105d4576105d46113d2565b604080518082019091526006815265736f7572636560d01b6020820152610644908290610a67565b6060830151610654908290610a67565b60a083015151156106e8576040805180820190915260048152636172677360e01b6020820152610685908290610a67565b61068e81610abe565b60005b8360a00151518110156106de576106ce8460a0015182815181106106b7576106b76113e8565b602002602001015183610a6790919063ffffffff16565b6106d781611414565b9050610691565b506106e881610ae2565b608083015151156107ac5760008360200151600281111561070b5761070b6113d2565b036107295760405163a80d31f760e01b815260040160405180910390fd5b60408051808201909152600f81526e39b2b1b932ba39a637b1b0ba34b7b760891b602082015261075a908290610a67565b610773836020015160028111156105d4576105d46113d2565b6040805180820190915260078152667365637265747360c81b602082015261079c908290610a67565b60808301516107ac908290610b00565b60c083015151156108455760408051808201909152600981526862797465734172677360b81b60208201526107e2908290610a67565b6107eb81610abe565b60005b8360c001515181101561083b5761082b8460c001518281518110610814576108146113e8565b602002602001015183610b0090919063ffffffff16565b61083481611414565b90506107ee565b5061084581610ae2565b515192915050565b6000807f00000000000000000000000000000000000000000000000000000000000000006001600160a01b031663461d27628688600188886040518663ffffffff1660e01b81526004016108a595949392919061142d565b6020604051808303816000875af11580156108c4573d6000803e3d6000fd5b505050506040513d601f19601f820116820180604052508101906108e89190611307565b60405190915081907f1131472297a800fee664d1d89cfa8f7676ff07189ecc53f80bbb5f4969099db890600090a295945050505050565b336001600160a01b038216036109775760405162461bcd60e51b815260206004820152601760248201527f43616e6e6f74207472616e7366657220746f2073656c6600000000000000000060448201526064016103d6565b600180546001600160a01b0319166001600160a01b0383811691821790925560008054604051929316917fed8889f560326eb138920d842192f0eb3dd22b4f139c87a2c57538e05bae12789190a350565b80516000036109ea576040516322ce3edd60e01b815260040160405180910390fd5b838360028111156109fd576109fd6113d2565b90816002811115610a1057610a106113d2565b90525060408401828015610a2657610a266113d2565b90818015610a3657610a366113d2565b9052506060909301929092525050565b610a4e610ebb565b8051610a5a9083610b0d565b5060006020820152919050565b610a748260038351610b87565b8151610a809082610ca6565b505050565b8151610a929060c2610cce565b506105478282604051602001610aaa91815260200190565b604051602081830303815290604052610b00565b610ac9816004610d37565b600181602001818151610adc9190611476565b90525050565b610aed816007610d37565b600181602001818151610adc9190611489565b610a748260028351610b87565b604080518082019091526060815260006020820152610b2d60208361149c565b15610b5557610b3d60208361149c565b610b48906020611489565b610b529083611476565b91505b602080840183905260405180855260008152908184010181811015610b7957600080fd5b604052508290505b92915050565b6017816001600160401b031611610bb3578251610bad9060e0600585901b168317610cce565b50505050565b60ff816001600160401b031611610bf3578251610bdb906018611fe0600586901b1617610cce565b508251610bad906001600160401b0383166001610d4e565b61ffff816001600160401b031611610c34578251610c1c906019611fe0600586901b1617610cce565b508251610bad906001600160401b0383166002610d4e565b63ffffffff816001600160401b031611610c77578251610c5f90601a611fe0600586901b1617610cce565b508251610bad906001600160401b0383166004610d4e565b8251610c8e90601b611fe0600586901b1617610cce565b508251610bad906001600160401b0383166008610d4e565b604080518082019091526060815260006020820152610cc783838451610dd3565b9392505050565b6040805180820190915260608152600060208201528251516000610cf3826001611476565b905084602001518210610d1457610d1485610d0f8360026114be565b610ea4565b8451602083820101858153508051821115610d2d578181525b5093949350505050565b8151610a8090601f611fe0600585901b1617610cce565b6040805180820190915260608152600060208201528351516000610d728285611476565b90508560200151811115610d8f57610d8f86610d0f8360026114be565b60006001610d9f866101006115b9565b610da99190611489565b90508651828101878319825116178152508051831115610dc7578281525b50959695505050505050565b6040805180820190915260608152600060208201528251821115610df657600080fd5b8351516000610e058483611476565b90508560200151811115610e2257610e2286610d0f8360026114be565b855180518382016020019160009180851115610e3c578482525b505050602086015b60208610610e7c5780518252610e5b602083611476565b9150610e68602082611476565b9050610e75602087611489565b9550610e44565b51815160001960208890036101000a0190811690199190911617905250849150509392505050565b8151610eb08383610b0d565b50610bad8382610ca6565b6040518060400160405280610ee3604051806040016040528060608152602001600081525090565b8152602001600081525090565b634e487b7160e01b600052604160045260246000fd5b604051601f8201601f191681016001600160401b0381118282101715610f2e57610f2e610ef0565b604052919050565b60006001600160401b03831115610f4f57610f4f610ef0565b610f62601f8401601f1916602001610f06565b9050828152838383011115610f7657600080fd5b828260208301376000602084830101529392505050565b600082601f830112610f9e57600080fd5b610cc783833560208501610f36565b600080600060608486031215610fc257600080fd5b8335925060208401356001600160401b0380821115610fe057600080fd5b610fec87838801610f8d565b9350604086013591508082111561100257600080fd5b5061100f86828701610f8d565b9150509250925092565b6000815180845260005b8181101561103f57602081850181015186830182015201611023565b506000602082860101526020601f19601f83011685010191505092915050565b602081526000610cc76020830184611019565b60008060006040848603121561108757600080fd5b83356001600160401b03808216821461109f57600080fd5b909350602085013590808211156110b557600080fd5b818601915086601f8301126110c957600080fd5b8135818111156110d857600080fd5b8760208260051b85010111156110ed57600080fd5b6020830194508093505050509250925092565b60006020828403121561111257600080fd5b81356001600160a01b0381168114610cc757600080fd5b600181811c9082168061113d57607f821691505b60208210810361115d57634e487b7160e01b600052602260045260246000fd5b50919050565b60006001600160401b038084111561117d5761117d610ef0565b8360051b602061118e818301610f06565b8681529185019181810190368411156111a657600080fd5b865b848110156111ee578035868111156111c05760008081fd5b880136601f8201126111d25760008081fd5b6111e0368235878401610f36565b8452509183019183016111a8565b50979650505050505050565b601f821115610a8057600081815260208120601f850160051c810160208610156112215750805b601f850160051c820191505b818110156112405782815560010161122d565b505050505050565b81516001600160401b0381111561126157611261610ef0565b6112758161126f8454611129565b846111fa565b602080601f8311600181146112aa57600084156112925750858301515b600019600386901b1c1916600185901b178555611240565b600085815260208120601f198616915b828110156112d9578886015182559484019460019091019084016112ba565b50858210156112f75787850151600019600388901b60f8161c191681555b5050505050600190811b01905550565b60006020828403121561131957600080fd5b5051919050565b6000815461132d81611129565b80855260206001838116801561134a576001811461136457611392565b60ff1985168884015283151560051b880183019550611392565b866000528260002060005b8581101561138a5781548a820186015290830190840161136f565b890184019650505b505050505092915050565b8381526060602082015260006113b66060830185611320565b82810360408401526113c88185611320565b9695505050505050565b634e487b7160e01b600052602160045260246000fd5b634e487b7160e01b600052603260045260246000fd5b634e487b7160e01b600052601160045260246000fd5b600060018201611426576114266113fe565b5060010190565b6001600160401b038616815260a06020820152600061144f60a0830187611019565b61ffff9590951660408301525063ffffffff92909216606083015260809091015292915050565b80820180821115610b8157610b816113fe565b81810381811115610b8157610b816113fe565b6000826114b957634e487b7160e01b600052601260045260246000fd5b500690565b8082028115828204841417610b8157610b816113fe565b600181815b808511156115105781600019048211156114f6576114f66113fe565b8085161561150357918102915b93841c93908002906114da565b509250929050565b60008261152757506001610b81565b8161153457506000610b81565b816001811461154a576002811461155457611570565b6001915050610b81565b60ff841115611565576115656113fe565b50506001821b610b81565b5060208310610133831016604e8410600b8410161715611593575081810a610b81565b61159d83836114d5565b80600019048211156115b1576115b16113fe565b029392505050565b6000610cc7838361151856fea2646970667358221220278ccea79b8a13f40ace10fe696bf4ca9aaf3cf6b338422dcb23473a1e32790764736f6c63430008130033636f6e737420746f6b656e203d20617267735b305d3b636f6e7374206c6f636174696f6e6964203d20617267735b315d3b636f6e737420737461727464617465203d20617267735b325d3b636f6e737420656e6464617465203d20617267735b335d3b636f6e73742064617461747970656964203d202754415647273b636f6e7374206170706964203d20617267735b345d3b636f6e737420636974794e616d65203d20617267735b355d3b636f6e73742075726c203d206068747470733a2f2f7777772e6e6365692e6e6f61612e676f762f63646f2d7765622f6170692f76322f646174613f6461746173657469643d4748434e44266c6f636174696f6e69643d247b6c6f636174696f6e69647d267374617274646174653d247b7374617274646174657d26656e64646174653d247b656e64646174657d26646174617479706569643d247b646174617479706569647d266c696d69743d3330603b636f6e7374206e6f6161526573706f6e7365203d2061776169742046756e6374696f6e732e6d616b654874747052657175657374287b75726c3a2075726c2c686561646572733a207b27746f6b656e273a20746f6b656e2c7d2c7d293b696620286e6f6161526573706f6e73652e6572726f7229207b7468726f77204572726f7228274e4f41412072657175657374206661696c656427293b7d636f6e7374207765617468657244617461203d206e6f6161526573706f6e73652e646174613b66756e6374696f6e2063616c63756c617465576561746865725269736b286461746129207b636f6e73742065787472656d6548696768203d2033353b636f6e73742065787472656d654c6f77203d20303b6c65742065787472656d65436f756e74203d20303b666f722028636f6e737420656e747279206f6620646174612e726573756c747329207b636f6e73742076616c7565203d20656e7472792e76616c75653b6966202876616c7565203e2065787472656d6548696768207c7c2076616c7565203c2065787472656d654c6f7729207b65787472656d65436f756e74202b3d20313b7d7d636f6e737420746f74616c4576656e7473203d20646174612e726573756c74732e6c656e6774683b636f6e7374207269736b466163746f72203d20746f74616c4576656e7473203e2030203f2065787472656d65436f756e74202f20746f74616c4576656e7473203a20303b72657475726e207269736b466163746f723b7d636f6e737420776561746865725269736b466163746f72203d2063616c63756c617465576561746865725269736b287765617468657244617461293b636f6e73742063697479526573706f6e7365203d2061776169742046756e6374696f6e732e6d616b654874747052657175657374287b75726c3a206068747470733a2f2f6170692e6f70656e776561746865726d61702e6f72672f67656f2f312e302f6469726563743f713d247b636974794e616d657d266c696d69743d312661707069643d247b61707069647d602c7d293b6966202863697479526573706f6e73652e6572726f7229207b7468726f77204572726f722827436974792072657175657374206661696c656427293b7d636f6e73742063697479203d2063697479526573706f6e73652e646174615b305d3b636f6e7374206c6174203d20636974792e6c61743b636f6e7374206c6f6e203d20636974792e6c6f6e3b636f6e737420736f696c55726c203d206068747470733a2f2f726573742e69737269632e6f72672f736f696c67726964732f76322e302f70726f706572746965732f71756572793f6c6f6e3d247b6c6f6e7d266c61743d247b6c61747d2670726f70657274793d636c61792670726f70657274793d73616e642670726f70657274793d73696c742664657074683d302d35636d2664657074683d302d3330636d2664657074683d352d3135636d2676616c75653d6d65616e603b636f6e737420736f696c526573706f6e7365203d2061776169742046756e6374696f6e732e6d616b654874747052657175657374287b75726c3a20736f696c55726c2c7d293b69662028736f696c526573706f6e73652e6572726f7229207b7468726f77204572726f722827536f696c2070726f706572746965732072657175657374206661696c656427293b7d636f6e737420736f696c44617461203d20736f696c526573706f6e73652e646174613b636f6e737420776569676874436c6179203d20302e333b636f6e73742077656967687453616e64203d20302e343b636f6e73742077656967687453696c74203d20302e333b66756e6374696f6e20657874726163744d65616e56616c756528726573706f6e73652c206c617965724e616d6529207b636f6e7374206c61796572203d20726573706f6e73652e70726f706572746965732e6c61796572732e66696e64286c203d3e206c2e6e616d65203d3d3d206c617965724e616d65293b696620286c6179657229207b636f6e737420646570746852616e6765203d206c617965722e6465707468732e66696e642864203d3e20642e6c6162656c203d3d3d2027302d35636d27293b72657475726e20646570746852616e676520262620646570746852616e67652e76616c7565732e6d65616e203f20646570746852616e67652e76616c7565732e6d65616e202f206c617965722e756e69745f6d6561737572652e645f666163746f72203a20303b7d72657475726e20303b7d636f6e737420636c61794d65616e203d20657874726163744d65616e56616c756528736f696c446174612c2027636c617927293b636f6e73742073616e644d65616e203d20657874726163744d65616e56616c756528736f696c446174612c202773616e6427293b636f6e73742073696c744d65616e203d20657874726163744d65616e56616c756528736f696c446174612c202773696c7427293b636f6e737420736f696c466163746f723d28776569676874436c61792a636c61794d65616e292b2877656967687453616e642a73616e644d65616e292b2877656967687453696c74202a73696c744d65616e293b636f6e7374207269736b466163746f72203d20313030202a2028776561746865725269736b466163746f72202b20736f696c466163746f72293b72657475726e2046756e6374696f6e732e656e636f646555696e74323536284d6174682e726f756e64287269736b466163746f7229293b",
  "devdoc": {
    "kind": "dev",
    "methods": {
      "handleOracleFulfillment(bytes32,bytes,bytes)": {
        "details": "Either response or error parameter will be set, but never both.",
        "params": {
          "err": "Aggregated error either from the request's source code or from the execution pipeline.",
          "requestId": "The requestId returned by FunctionsClient.sendRequest().",
          "response": "Aggregated response from the request's source code."
        }
      },
      "sendRequest(uint64,string[])": {
        "params": {
          "args": "The arguments to pass to the HTTP request",
          "subscriptionId": "The ID for the Chainlink subscription"
        },
        "returns": {
          "requestId": "The ID of the request"
        }
      }
    },
    "version": 1
  },
  "userdoc": {
    "kind": "user",
    "methods": {
      "acceptOwnership()": {
        "notice": "Allows an ownership transfer to be completed by the recipient."
      },
      "constructor": {
        "notice": "Initializes the contract with the Chainlink router address and sets the contract owner"
      },
      "handleOracleFulfillment(bytes32,bytes,bytes)": {
        "notice": "Chainlink Functions response handler called by the Functions Router during fullilment from the designated transmitter node in an OCR round."
      },
      "owner()": {
        "notice": "Get the current owner"
      },
      "sendRequest(uint64,string[])": {
        "notice": "Sends an HTTP request for weather and soil data"
      },
      "transferOwnership(address)": {
        "notice": "Allows an owner to begin transferring ownership to a new address."
      }
    },
    "notice": "deployed address  Sepolio : 0x8e6030023C1454fFbc2EF18c0da14809Fe95F7E0",
    "version": 1
  },
  "storageLayout": {
    "storage": [
      {
        "astId": 816,
        "contract": "contracts/chain_link/WeatherRiskFunctionsConsumer.sol:WeatherRiskFunctionsConsumer",
        "label": "s_owner",
        "offset": 0,
        "slot": "0",
        "type": "t_address"
      },
      {
        "astId": 818,
        "contract": "contracts/chain_link/WeatherRiskFunctionsConsumer.sol:WeatherRiskFunctionsConsumer",
        "label": "s_pendingOwner",
        "offset": 0,
        "slot": "1",
        "type": "t_address"
      },
      {
        "astId": 2285,
        "contract": "contracts/chain_link/WeatherRiskFunctionsConsumer.sol:WeatherRiskFunctionsConsumer",
        "label": "s_lastRequestId",
        "offset": 0,
        "slot": "2",
        "type": "t_bytes32"
      },
      {
        "astId": 2287,
        "contract": "contracts/chain_link/WeatherRiskFunctionsConsumer.sol:WeatherRiskFunctionsConsumer",
        "label": "s_lastResponse",
        "offset": 0,
        "slot": "3",
        "type": "t_bytes_storage"
      },
      {
        "astId": 2289,
        "contract": "contracts/chain_link/WeatherRiskFunctionsConsumer.sol:WeatherRiskFunctionsConsumer",
        "label": "s_lastError",
        "offset": 0,
        "slot": "4",
        "type": "t_bytes_storage"
      },
      {
        "astId": 2306,
        "contract": "contracts/chain_link/WeatherRiskFunctionsConsumer.sol:WeatherRiskFunctionsConsumer",
        "label": "router",
        "offset": 0,
        "slot": "5",
        "type": "t_address"
      },
      {
        "astId": 2309,
        "contract": "contracts/chain_link/WeatherRiskFunctionsConsumer.sol:WeatherRiskFunctionsConsumer",
        "label": "source",
        "offset": 0,
        "slot": "6",
        "type": "t_string_storage"
      },
      {
        "astId": 2312,
        "contract": "contracts/chain_link/WeatherRiskFunctionsConsumer.sol:WeatherRiskFunctionsConsumer",
        "label": "gasLimit",
        "offset": 0,
        "slot": "7",
        "type": "t_uint32"
      },
      {
        "astId": 2315,
        "contract": "contracts/chain_link/WeatherRiskFunctionsConsumer.sol:WeatherRiskFunctionsConsumer",
        "label": "donID",
        "offset": 0,
        "slot": "8",
        "type": "t_bytes32"
      },
      {
        "astId": 2317,
        "contract": "contracts/chain_link/WeatherRiskFunctionsConsumer.sol:WeatherRiskFunctionsConsumer",
        "label": "riskFactor",
        "offset": 0,
        "slot": "9",
        "type": "t_uint256"
      }
    ],
    "types": {
      "t_address": {
        "encoding": "inplace",
        "label": "address",
        "numberOfBytes": "20"
      },
      "t_bytes32": {
        "encoding": "inplace",
        "label": "bytes32",
        "numberOfBytes": "32"
      },
      "t_bytes_storage": {
        "encoding": "bytes",
        "label": "bytes",
        "numberOfBytes": "32"
      },
      "t_string_storage": {
        "encoding": "bytes",
        "label": "string",
        "numberOfBytes": "32"
      },
      "t_uint256": {
        "encoding": "inplace",
        "label": "uint256",
        "numberOfBytes": "32"
      },
      "t_uint32": {
        "encoding": "inplace",
        "label": "uint32",
        "numberOfBytes": "4"
      }
    }
  }
}