{
  "address": "0x3A720e5d30b8307268e8FbC4BEdA514c43B23D6A",
  "abi": [
    {
      "inputs": [
        {
          "internalType": "contract WorldCoinVerification",
          "name": "_worldCoinVerification",
          "type": "address"
        }
      ],
      "stateMutability": "nonpayable",
      "type": "constructor"
    },
    {
      "anonymous": false,
      "inputs": [
        {
          "indexed": true,
          "internalType": "address",
          "name": "user",
          "type": "address"
        }
      ],
      "name": "UserRegistered",
      "type": "event"
    },
    {
      "inputs": [
        {
          "internalType": "address",
          "name": "",
          "type": "address"
        }
      ],
      "name": "registeredUsers",
      "outputs": [
        {
          "internalType": "bool",
          "name": "",
          "type": "bool"
        }
      ],
      "stateMutability": "view",
      "type": "function"
    },
    {
      "inputs": [
        {
          "internalType": "address",
          "name": "signal",
          "type": "address"
        },
        {
          "internalType": "uint256",
          "name": "root",
          "type": "uint256"
        },
        {
          "internalType": "uint256",
          "name": "nullifierHash",
          "type": "uint256"
        },
        {
          "internalType": "uint256[8]",
          "name": "proof",
          "type": "uint256[8]"
        }
      ],
      "name": "verifyAndRegister",
      "outputs": [],
      "stateMutability": "nonpayable",
      "type": "function"
    },
    {
      "inputs": [],
      "name": "worldCoinVerification",
      "outputs": [
        {
          "internalType": "contract WorldCoinVerification",
          "name": "",
          "type": "address"
        }
      ],
      "stateMutability": "view",
      "type": "function"
    }
  ],
  "transactionHash": "0x56dcd3be0645ba18e9b45fd9d379c37da9b6134918e08df9571a42cb08a6cf7e",
  "args": [
    "0x303265791D01DFBacf88547022ba015b0B777694"
  ],
  "numDeployments": 1,
  "solcInputHash": "7fee5af48f3ca2c8a0da819e27c4a17c",
  "bytecode": "0x608060405234801561001057600080fd5b5060405161031f38038061031f83398101604081905261002f91610054565b600080546001600160a01b0319166001600160a01b0392909216919091179055610084565b60006020828403121561006657600080fd5b81516001600160a01b038116811461007d57600080fd5b9392505050565b61028c806100936000396000f3fe608060405234801561001057600080fd5b50600436106100415760003560e01c80630e50cee514610046578063542f75c21461007e5780637b9153c4146100a9575b600080fd5b6100696100543660046101b5565b60016020526000908152604090205460ff1681565b60405190151581526020015b60405180910390f35b600054610091906001600160a01b031681565b6040516001600160a01b039091168152602001610075565b6100bc6100b73660046101d7565b6100be565b005b60005460405163e9b7055360e01b81526001600160a01b039091169063e9b70553906100f4908790879087908790600401610225565b600060405180830381600087803b15801561010e57600080fd5b505af1158015610122573d6000803e3d6000fd5b505050506001600160a01b03841660009081526001602052604090205460ff16610193576001600160a01b0384166000818152600160208190526040808320805460ff1916909217909155517f54db7a5cb4735e1aac1f53db512d3390390bb6637bd30ad4bf9fc98667d9b9b99190a25b50505050565b80356001600160a01b03811681146101b057600080fd5b919050565b6000602082840312156101c757600080fd5b6101d082610199565b9392505050565b6000806000806101608086880312156101ef57600080fd5b6101f886610199565b9450602086013593506040860135925086818701111561021757600080fd5b509295919450926060019150565b6001600160a01b0385168152602081018490526040810183905261016081016101008360608401379594505050505056fea26469706673582212201041cfaa4e881f95067a73016d07f47780f5098158a58a2d93a0080b8f7350c664736f6c63430008130033",
  "devdoc": {
    "events": {
      "UserRegistered(address)": {
        "details": "Event emitted when a user is registered"
      }
    },
    "kind": "dev",
    "methods": {
      "constructor": {
        "params": {
          "_worldCoinVerification": "The address of the deployed WorldCoinVerification contract"
        }
      },
      "verifyAndRegister(address,uint256,uint256,uint256[8])": {
        "params": {
          "nullifierHash": "The nullifier hash for this proof, preventing double signaling (returned by the JS widget)",
          "proof": "The zero-knowledge proof that demonstrates the claimer is registered with World ID (returned by the JS widget)",
          "root": "The root of the Merkle tree (returned by the JS widget)",
          "signal": "An arbitrary input from the user, usually the user's wallet address (check README for further details)"
        }
      }
    },
    "stateVariables": {
      "registeredUsers": {
        "details": "Mapping to keep track of registered users"
      },
      "worldCoinVerification": {
        "details": "The WorldCoinVerification contract instance"
      }
    },
    "version": 1
  },
  "userdoc": {
    "kind": "user",
    "methods": {},
    "version": 1
  },
  "storageLayout": {
    "storage": [
      {
        "astId": 168,
        "contract": "contracts/world_coin/WorldCoinManager.sol:WorldCoinManager",
        "label": "worldCoinVerification",
        "offset": 0,
        "slot": "0",
        "type": "t_contract(WorldCoinVerification)115"
      },
      {
        "astId": 173,
        "contract": "contracts/world_coin/WorldCoinManager.sol:WorldCoinManager",
        "label": "registeredUsers",
        "offset": 0,
        "slot": "1",
        "type": "t_mapping(t_address,t_bool)"
      }
    ],
    "types": {
      "t_address": {
        "encoding": "inplace",
        "label": "address",
        "numberOfBytes": "20"
      },
      "t_bool": {
        "encoding": "inplace",
        "label": "bool",
        "numberOfBytes": "1"
      },
      "t_contract(WorldCoinVerification)115": {
        "encoding": "inplace",
        "label": "contract WorldCoinVerification",
        "numberOfBytes": "20"
      },
      "t_mapping(t_address,t_bool)": {
        "encoding": "mapping",
        "key": "t_address",
        "label": "mapping(address => bool)",
        "numberOfBytes": "32",
        "value": "t_bool"
      }
    }
  }
}